:020000040800F2
:10000000002800200D02000849040008E103000850
:1000100045040008BD020008A70D0008000000000C
:10002000000000000000000000000000FD0A0008C1
:10003000C102000800000000DB0A00085D0C000897
:1000400027020008270200082702000827020008EC
:1000500027020008270200082702000827020008DC
:1000600027020008270200082702000827020008CC
:1000700027020008270200082702000827020008BC
:1000800027020008270200082702000827020008AC
:10009000270200082702000827020008270200089C
:1000A000270200082702000827020008270200088C
:1000B000270200082702000827020008270200087C
:1000C000270200082702000827020008270200086C
:1000D00027020008C10C00082702000827020008B8
:1000E000270200082702000827020008270200084C
:1000F000270200082702000827020008270200083C
:10010000270200082702000827020008270200082B
:10011000270200082702000827020008270200081B
:10012000270200082702000827020008270200080B
:1001300000F002F800F05AF80AA090E8000C82449F
:100140008344AAF10107DA4501D100F04FF8AFF27C
:10015000090EBAE80F0013F0010F18BFFB1A43F0A5
:1001600001031847C4250000E42500000A444FF0AD
:10017000000C10F8013B13F0070408BF10F8014B06
:100180001D1108BF10F8015B641E05D010F8016B4B
:10019000641E01F8016BF9D113F0080F1EBF10F8AF
:1001A000014BAD1C0C1B09D16D1E58BF01F801CBD2
:1001B000FAD505E014F8016B01F8016B6D1EF9D555
:1001C0009142D6D37047000000230024002500266A
:1001D000103A28BF78C1FBD8520728BF30C148BFAA
:1001E0000B6070471FB51FBD10B510BD00F033F890
:1001F0001146FFF7F7FF00F023FE00F051F803B4BB
:10020000FFF7F2FF03BC00F0D0FD00000948804773
:1002100009480047FEE7FEE7FEE7FEE7FEE7FEE7E8
:10022000FEE7FEE7FEE7FEE704480549054A064B00
:1002300070470000610C0008310100080022002016
:100240000028002000240020002400207047704770
:10025000704770477047754600F02CF8AE460500B1
:100260006946534620F00700854618B020B5FFF7D1
:10027000DBFFBDE820404FF000064FF000074FF0D5
:1002800000084FF0000B21F00701AC46ACE8C009B4
:10029000ACE8C009ACE8C009ACE8C0098D467047BD
:1002A00010B50446AFF300802046BDE81040FFF7CC
:1002B000A6BF000000487047A021002000BFFEE755
:1002C00070472DE9F041024600250026002000235A
:1002D0000024002791F803C00CF00F0591F803C02B
:1002E0000CF0100CBCF1000F03D091F802C04CEAE6
:1002F000050591F800C0BCF1000F31D01468002052
:100300002BE04FF0010C0CFA00F3B1F800C00CEA3E
:1003100003069E4220D183004FF00F0C0CFA03F726
:10032000BC4305FA03FC4CEA040491F803C0BCF199
:10033000280F06D14FF0010C0CFA00FCC2F814C0D3
:100340000AE091F803C0BCF1480F05D14FF0010C51
:100350000CFA00FCC2F810C0401C0828D1D314606D
:10036000B1F800C0BCF1FF0F34DD546800202EE06E
:1003700000F1080C4FF0010808FA0CF3B1F800C0C6
:100380000CEA03069E4221D183004FF00F0C0CFAB9
:1003900003F7BC4305FA03FC4CEA040491F803C0DC
:1003A000BCF1280F05D100F1080C08FA0CF8C2F8CE
:1003B000148091F803C0BCF1480F07D100F1080C7C
:1003C0004FF0010808FA0CF8C2F81080401C082809
:1003D000CED35460BDE8F081416170470161704740
:1003E00000BFFEE710B580210748FFF7F7FF202187
:1003F0000548FFF7F3FF80210348FFF7EDFF2021B9
:100400000148FFF7E9FF10BD0008014010B52021A9
:100410000548FFF7E3FF80210348FFF7DDFF802158
:100420000148FFF7DBFF10BD0008014010B5202197
:100430000348FFF7D3FF20210148FFF7CDFF10BD90
:100440000008014000BFFEE7704710B54FF4A06000
:1004500000F002F810BD000002490143024A116099
:10046000704700000000FA050CED00E070B50024B4
:100470000CE0002506E00020074901EBC501085506
:10048000681CC5B2802DF6DB601CC4B2082CF0DB02
:1004900000F03CF970BD0000581C002070B50B4600
:1004A000CE1701EB5676C6F3C702CE1701EB567690
:1004B000F610A1EBC606F4B20123A340DDB20E4B49
:1004C00003EBC0039B5CDB430B4E06EBC006B3544F
:1004D000094B03EBC0039B5C2B43074E06EBC006A6
:1004E000B354054B03EBC0039B5CDB43024E06EBAE
:1004F000C006B35470BD0000581C002010B504465F
:100500001CB90021A62000F0CCFA012C03D1002157
:10051000A72000F0C6FA10BD10B504463CB9002172
:10052000C82000F0BEFA0021A12000F0BAFA012C88
:1005300007D10021C02000F0B4FA0021A02000F073
:10054000B0FA10BD70B50A46CE1701EB5676C6F369
:10055000C703CE1701EB5676F610A1EBC606F4B230
:100560000122A240D5B2054A02EBC002D25C2A4366
:10057000024E06EBC006F25470BD0000581C00206D
:1005800008B50121042000F0A9FAB020ADF8000060
:1005900010208DF8030003208DF8020069465348AF
:1005A000FFF78FFEB0215148FFF718FF0121082007
:1005B00000F094FA40F20310ADF8000010208DF81E
:1005C000030003208DF8020069464948FFF779FED1
:1005D00040F203114648FFF701FF01214448FFF7AD
:1005E000FDFE642000F006FC01214148FFF7F4FE07
:1005F000C82000F0FFFB01213D48FFF7EFFE02217C
:100600003B48FFF7E9FE0021AE2000F04AFA002146
:10061000084600F046FA0021102000F042FA0021BE
:10062000402000F03EFA0021812000F03AFA00213B
:10063000CF2000F036FA0021A12000F032FA00218C
:10064000C82000F02EFA0021A62000F02AFA00218E
:10065000A82000F026FA00213F2000F022FA002115
:10066000D32000F01EFA0021084600F01AFA0021FB
:10067000D52000F016FA0021802000F012FA0021A7
:10068000D92000F00EFA0021F12000F00AFA002132
:10069000DA2000F006FA0021122000F002FA002110
:1006A000DB2000F0FEF90021402000F0FAF90021E3
:1006B000202000F0F6F90021022000F0F2F90021DC
:1006C0008D2000F0EEF90021142000F0EAF900215D
:1006D000A42000F0E6F90021A62000F0E2F90021B4
:1006E000AF2000F0DEF9FFF7C1FE08BD00080140B1
:1006F000000C014010B50246012000E050430B1EE3
:10070000A1F10104E1B2F9D110BD000070B50024DF
:100710001CE004F1B001C8B2002100F0C2F90021D0
:10072000084600F0BEF90021102000F0BAF90025BB
:1007300008E0084901EBC501085D012100F0B1F9AD
:10074000681CC5B2802DF4DB601CC4B2082CE0DB51
:1007500070BD0000581C00202DE9FF4F81B080467D
:100760000E461C4600962046E31704EB5373DB103D
:1007700021464FEAE47C04EB5C7C4FEAEC0CA4EBF2
:10078000CC0CBCF1000F02D04FF0010C01E04FF097
:10079000000C6344224604EBD27C4FEA6C0C03FB52
:1007A0000CF303F0FF0B03982038C7B2002547E095
:1007B0000C2C07D107EB4700234901EB800010F810
:1007C00005A014E0102C05D1204800EB071010F80C
:1007D00005A00CE0182C07D107EBC7001C4901EB62
:1007E000800010F805A002E005B0BDE8F08F4FF0E2
:1007F00000091FE00AF0800020B131464046FFF7B3
:10080000A1FE03E031464046FFF748FE4FEA4A604A
:100810004FEA106A701CC6B20098301AA04205D187
:10082000009E08F1010000F0FF0806E009F1010058
:1008300000F0FF09B9F1080FDCDB00BF681CC5B28E
:100840005D45B5DB00BFCFE7680F0008DC1300088B
:10085000CC1900082DE9FF4F0746884691461C46F3
:100860004FF0000B0297CDF804802046E11704EB0F
:100870005171C1F3C701009160E009FB04F0C11799
:1008800000EB51710BEBE101CEB20BF1010000F076
:10089000FF0B002550E0102C05D12C4800EB061072
:1008A000405D03901BE0182C07D106EBC6002849D9
:1008B00001EBC000405D039011E0202C05D12548DC
:1008C00000EBC610405D039009E0402C05D12248A2
:1008D00000EB4620405D039001E0BDE8FF8F4FF044
:1008E000000A17E0039800F0010020B141463846A5
:1008F000FFF728FE03E041463846FFF7CFFD039897
:100900004010039008F1010000F0FF080AF1010017
:1009100000F0FF0ABAF1080FE4DB781CC7B20298B6
:10092000381AA04204D1029F01980830C0B2019049
:10093000DDF80480681CC5B2A542ACDB0098411EFE
:10094000C9B20091002898D100BFC6E7000000207E
:100950006001002038020020380400202DE9F04F0B
:1009600006468A4691461F46099C00252CE0781BC6
:10097000401EC1B20A20FFF7BDFEB9FBF0F00A210C
:10098000B0FBF1F201FB1208B8F1000F0CD1A34645
:1009900004EBDB71491001FB0561C8B2234630222C
:1009A0005146FFF7D9FE0DE0A34604EBDB71491079
:1009B00001FB0561C8B208F13001CAB223465146B5
:1009C000FFF7CAFE681CC5B2BD42D0DBBDE8F08FA0
:1009D0002DE9F05F05460E4617469846DDF828B02B
:1009E0004FF00009CA460024E11704EB5171C91009
:1009F000A4EBC10101B901E0601CC4B2344614E0AB
:100A00002146284600F036F8AA460AE01BF80900FD
:100A1000012100F046F809F101090AF1010000F096
:100A2000FF0ABA45F2DB601CC4B24445E8DBBDE80E
:100A3000F09FF0B506460F4614461D4613E0227897
:100A40002B4639463046FFF787FE284605EBD07126
:100A500006EB6101CEB2C5F18000B04202DA002699
:100A6000B81CC7B2641C2078202802DB20787E28BE
:100A7000E5DDF0BD70B504460D4605F1B001C8B224
:100A8000002100F00EF8102141EA1410002100F0BE
:100A900008F804F00F0141F00100002100F001F816
:100AA00070BD70B505460C46FFF79CFC782000F041
:100AB00027F8FFF7BBFC1CB1402000F021F802E052
:100AC000002000F01DF8FFF7B1FC284600F018F8F0
:100AD000FFF7ACFCFFF79AFC70BD704729B1064ADE
:100AE00092690243044B9A6104E0034A926982438B
:100AF000014B9A61704700000010024070470000EF
:100B000070B5044600251BE020210F48FFF764FC68
:100B100004F0800020B180210B48FFF75FFC03E068
:100B200080210948FFF758FC20210748FFF756FCB1
:100B300020210548FFF750FC6006040E681CC5B272
:100B4000082DE1DB70BD00000008014010B500F089
:100B500001F810BD0CB500200190009033480068EA
:100B600040F480303149086000BF3048006800F42C
:100B7000003000900198401C0190009818B901982D
:100B8000B0F5A06FF1D12948006800F4003010B131
:100B90000120009001E0002000900098012843D13E
:100BA0002348006840F010002149086008460068AA
:100BB00020F0030008600846006840F0020008606A
:100BC0001A48406819494860084640684860084625
:100BD000406840F4806048600846406820F47C101B
:100BE00048600846406840F4E810486008460068DD
:100BF00040F08070086000BF0C48006800F0007092
:100C00000028F9D00948406820F0030007494860EF
:100C10000846406840F00200486000BF0348406852
:100C200000F00C000828F9D10CBD000000100240B3
:100C300000200240042808D14FF0E021096941F06A
:100C400004014FF0E022116107E04FF0E021096953
:100C500021F004014FF0E02211617047704700005D
:100C600010B51348006840F00100114908600846BB
:100C70004068104908400E494860084600680E491F
:100C800008400B4908600846006820F4802008608E
:100C90000846406820F4FE0048604FF41F0088605A
:100CA000FFF754FF4FF000600449086010BD0000DA
:100CB000001002400000FFF8FFFFF6FE08ED00E024
:100CC00010B540F225511D4800F03EF810B31B4806
:100CD00000F064F8C4B21A48008800F40040C8B9B3
:100CE0001748008800F4804060B10A2C03D000202F
:100CF0001349088020E01248008840F40040104961
:100D0000088019E00D2C06D10D48008840F4804081
:100D10000B49088010E00A480088C0F30D0009491B
:100D20000C5407480088401C054908800846008884
:100D3000C72801DD0020088010BD000000380140F8
:100D400040140020D820002070B502460024002363
:100D50000025002040F66A16B14200D100BFC1F361
:100D6000421501F01F03012606FA03F3012D02D1FB
:100D70009689334006E0022D02D1168A334001E005
:100D8000968A33400C12012606FA04F41688344081
:100D900013B10CB1012000E0002070BD014688882D
:100DA000C0F30800704700BFFEE7014600BF704770
:100DB00010B56FF00400FFF73DFF0A4800680A49CC
:100DC000B0FBF1F0094908700846007800EB4001DB
:100DD000C1EBC0104FF6FF7101EAC0000449088062
:100DE00010BD00004414002000127A0038140020C6
:100DF0003A1400200146114A12884A434FF0E0237A
:100E00005A6100229A611A46126942F001021A617F
:100E100000BF4FF0E022106900F001021AB100F4A7
:100E20008032002AF5D04FF0E022126922F0010250
:100E30004FF0E0231A6100229A6170473A140020B3
:100E400008B5FFF7B5FFFFF700FBFFF799FB0020A0
:100E5000FFF754FB0020FFF75FFBFFF757FC202450
:100E60006EE0384808238022002100900846FFF7F2
:100E7000AFFD4FF4FA70FFF7BDFFFFF7F7FA10234D
:100E800031A220211420FFF7D4FD102331A23021FC
:100E90000020FFF7CEFD102330A230213F20FFF7C6
:100EA000C8FD1023224630210846FFF755FC601C80
:100EB000C4B27E2C00DD20241020032322463021E2
:100EC00000906720FFF74AFDFFF720FC4FF4FA700F
:100ED000FFF790FFFFF7CAFA1023002211461046D1
:100EE000FFF7B8FC1823002211461020FFF7B2FCD0
:100EF0002023002214211820FFF7ACFC40230022FD
:100F000011461846FFF7A6FCFFF700FC4FF4FA70F5
:100F1000FFF770FFFFF7AAFA0C2312A20021084680
:100F2000FFF787FD10230FA20C210020FFF781FDA2
:100F300018230CA21C210020FFF77BFDFFF7E6FB26
:100F40008FE7000058140020323031342F30352F15
:100F50003031000041534349493A0000434F444572
:100F60003A00000041424300000000000000000081
:100F700000000000000000003F40000000000000F2
:100F800000003000400030004000000009000BC0AD
:100F90003D000BC03D00090018C024407FE0224006
:100FA00031800000180024C01B000D8032400180F9
:100FB00003801C4027401C80074000401000600058
:100FC00000000000000000000000000000001F8082
:100FD000204040200000402020401F8000000000F2
:100FE000090006001F80060009000000040004003C
:100FF0003F800400040000000010006000000000BA
:1010000000000000040004000400040004000000CC
:10101000000000400000000000000000002001C0AF
:1010200006003800400000001F8020402040204083
:101030001F800000000010403FC000400000000082
:1010400018C0214022402440184000001080204059
:10105000244024401B80000002000D0011003FC00E
:10106000014000003C8024402440244023800000B4
:101070001F802440244034400380000030002000C2
:1010800027C03800200000001B802440244024405A
:101090001B8000001C0022C0224022401F80000054
:1010A00000000000084000000000000000000000F8
:1010B0000460000000000000000004000A001100AD
:1010C00020804040090009000900090009000000D3
:1010D00000004040208011000A0004001800200099
:1010E00023402400180000001F8020402740294092
:1010F0001F400000004007C039000F0001C0004041
:1011000020403FC0244024401B8000001F8020401E
:10111000204020403080000020403FC02040204040
:101120001F80000020403FC024402E4030C00000FF
:1011300020403FC024402E00300000000F001080EF
:10114000204022403380020020403FC004000400C1
:101150003FC02040204020403FC0204020400000B1
:101160000060202020203FC02000200020403FC001
:1011700024400B0030C0204020403FC020400040B1
:10118000004000C03FC03C0003C03C003FC0000026
:1011900020403FC00C4023003FC020001F80204063
:1011A000204020401F80000020403FC024402400F9
:1011B000180000001F802140214020E01FA00000F7
:1011C00020403FC02440260019C0004018C02440E1
:1011D0002440224031800000300020403FC02040A9
:1011E0003000000020003F80004000403F80200091
:1011F00020003E0001C0070038002000380007C072
:101200003C0007C038000000204039C0060039C04B
:10121000204000002000384007C038402000000077
:10122000304021C02640384020C0000000000000AF
:101230007FE0402040200000000070000C00038090
:10124000004000000000402040207FE0000000003F
:1012500000002000400020000000000000100010EE
:1012600000100010001000100000000040000000FE
:1012700000000000000002800540054003C000405F
:1012800020003FC0044004400380000000000380B1
:101290000440044006400000000003800440244055
:1012A0003FC00040000003800540054003400000AF
:1012B000000004401FC0244024402000000002E041
:1012C000055005500650042020403FC00440040053
:1012D00003C000400000044027C0004000000000A0
:1012E00000100010041027E00000000020403FC064
:1012F0000140070004C00440204020403FC000409F
:101300000040000007C0040007C0040003C0000044
:10131000044007C00440040003C0004000000380F4
:101320000440044003800000041007F0045004400F
:1013300003800000000003800440045007F0001008
:10134000044007C002400400040000000000064002
:101350000540054004C00000000004001F80044058
:1013600000400000040007800040044007C0004027
:101370000400070004C0018006000400060001C04C
:10138000070001C006000000044006C0010006C0BE
:10139000044000000410071004E00180060004006F
:1013A0000000044005C006400440000000000000AA
:1013B00004007BE040200000000000000000FFF07F
:1013C00000000000000040207BE00400000000005E
:1013D000400080004000200020004000000000008D
:1013E00000000000000000000000000000000000FD
:1013F00000001FCC000C00000000000000000800EE
:10140000300060000800300060000000022003FC93
:101410001E20022003FC1E200220000000000E18E7
:1014200011043FFF10840C78000000000F001084AE
:101430000F3800C0077818840078000000780F8407
:1014400010C411240E9800E400840008080068000D
:10145000700000000000000000000000000000001C
:10146000000007E0181820044002000000004002BD
:101470002004181807E000000000000002400240AD
:1014800001800FF0018002400240000000800080D7
:1014900000800FF800800080008000000001000D37
:1014A000000E0000000000000000000000000080AE
:1014B0000080008000800080008000800000000C20
:1014C000000C00000000000000000000000000060A
:1014D000001800600180060018002000000007F0DE
:1014E000080810041004080807F0000000000804B1
:1014F00008041FFC000400040000000000000E0CA3
:1015000010141024104411840E0C000000000C185C
:1015100010041104110412880C700000000000E097
:101520000320042408241FFC0024000000001F984E
:10153000108411041104108810700000000007F0DE
:1015400008881104110418880070000000001C00B5
:10155000100010FC13001C001000000000000E38EA
:1015600011441084108411440E380000000007005C
:10157000088C10441044088807F0000000000000A8
:101580000000030C030C000000000000000000003D
:1015900000010106000000000000000000000080C3
:1015A000014002200410080810040000022002205C
:1015B000022002200220022002200000000010046D
:1015C00008080410022001400080000000000E0006
:1015D0001200100C106C10800F00000003E00C18BB
:1015E00013E4142417C4082807D000000004003CAA
:1015F00003C41C40074000E4001C000410041FFC4E
:101600001104110411040E880070000003E00C188E
:1016100010041004100410081C10000010041FFC1B
:10162000100410041004080807F0000010041FFC48
:101630001104110417C410040818000010041FFC42
:101640001104110017C010000800000003E00C187E
:101650001004100410441C780040000010041FFC0B
:1016600010840080008010841FFC1004000010040F
:1016700010041FFC1004100400000000000300010F
:10168000100110011FFE10001000000010041FFCCC
:10169000110403801464181C1004000010041FFCC3
:1016A0001004000400040004000C000010041FFCDF
:1016B0001F0000FC1F001FFC1004000010041FFC92
:1016C0000C04030000E010181FFC100007F00808CD
:1016D000100410041004080807F0000010041FFC98
:1016E00010841080108010800F00000007F0081890
:1016F00010241024101C080A07F2000010041FFC1C
:101700001104110011C011300E0C000400000E1C59
:1017100011041084108410441C38000018001000BC
:1017200010041FFC100410001800000010001FF827
:1017300010040004000410041FF8100010001E0024
:1017400011E0001C007013801C0010001FC0103C32
:1017500000E01F0000E0103C1FC000001004180C47
:10176000163401C001C01634180C100410001C00FF
:10177000130400FC13041C00100000000804101CDB
:101780001064108413041C041018000000000000F2
:1017900000007FFE400240024002000000003000D6
:1017A0000C0003800060001C0003000000004002E9
:1017B000400240027FFE0000000000000000000028
:1017C0002000400040004000200000000001000117
:1017D00000010001000100010001000100004000C3
:1017E0004000200000000000000000000000009801
:1017F000012401440144014400FC000410001FFCCA
:1018000000880104010400880070000000000070DE
:101810000088010401040104008800000000007039
:1018200000880104010411081FFC0004000000F8F6
:10183000014401440144014400C8000000000104C7
:1018400001040FFC1104110411001800000000D65F
:1018500001290129012901C90106000010041FFC0A
:10186000008401000100010400FC000400000104E8
:10187000190419FC0004000400000000000000032B
:1018800000010101190119FE0000000010041FFCF5
:101890000024004001B4010C010400000000100409
:1018A00010041FFC0004000400000000010401FCFF
:1018B0000104010001FC0104010000FC010401FC21
:1018C000008401000100010400FC0004000000F895
:1018D000010401040104010400F80000010101FFFA
:1018E0000085010401040088007000000000007001
:1018F000008801040104010501FF00010104010445
:1019000001FC00840104010001800000000000CC03
:101910000124012401240124019800000000010099
:10192000010007F80104010400000000010001F8B3
:10193000000400040004010801FC0004010001800F
:101940000170000C001001600180010001F0010C29
:10195000003001C00030010C01F001000000010462
:10196000018C00740170018C0104000001010181EF
:101970000171000E00180160018001000000018467
:10198000010C013401440184010C0000000000003E
:101990000000000001003EFC400240020000000088
:1019A00000000000FFFF00000000000000004002F7
:1019B00040023EFC0100000000000000000060004A
:1019C0008000800040004000200020000000000057
:1019D0000000000000000000000000000000000007
:1019E00000000000000000000000000000000000F7
:1019F0000000000000000000000000000000000FD8
:101A000080380FFE380F8038000000000000000012
:101A100000000000000000000000010000060000BF
:101A20000C00003800003100000600000C000038F7
:101A3000000030000000000000000000618000672E
:101A4000F807F9800061800061800061800061809A
:101A50000067F807F98000618000000000000000C6
:101A6000000001C0E003E0F00630080418081FFF82
:101A7000FE040E080787F00381E00000000000006C
:101A800001F000060C00040408060C7001F9C00007
:101A90000E00003BE000EC18070808040C180003D7
:101AA000E00000000001E00007F003F818041C0843
:101AB00004170807E1D003C0E00023B0003C080091
:101AC00020080000100000000000000100003100AC
:101AD000003200001C0000000000000000000000B8
:101AE00000000000000000000000000000000000F6
:101AF0000000000000000000000000007F0001FF67
:101B0000C00780F00C001810000420000200000044
:101B10000000002000021000040C00180780F001F3
:101B2000FFC0007F00000000000000000000000077
:101B30000000000000000000420000660000660097
:101B4000003C0000180003FFC0001800003C00002B
:101B50006600006600004200000000000800000867
:101B60000000080000080000080001FFC000080095
:101B70000008000008000008000008000000000045
:101B8000000100003100003200001C0000000000D5
:101B90000000000000000000000000000000000045
:101BA0000000000008000008000008000008000015
:101BB00008000008000008000008000008000008F5
:101BC00000000000000000000000000038000038A5
:101BD00000003800000000000000000000000000CD
:101BE00000000000000000000000000000060000EF
:101BF0001C000070000180000E0000380000C000D2
:101C00000700001C00003000000000000000000081
:101C10007F8001FFE00380700600180400080400C4
:101C20000806001803807001FFE0007F80000000BC
:101C30000000000000000100080100080100080386
:101C4000FFF807FFF8000008000008000008000087
:101C50000000000000000001C03802C058040098D5
:101C6000040118040218040418061C1803F81801CB
:101C7000E0F800000000000000000001C0E003C028
:101C8000F004000804080804080806180803F418FB
:101C900001E7F00001E0000000000000000000008B
:101CA0000300000D00001100006100008108030125
:101CB0000807FFF80FFFF800010800010800000006
:101CC0000000000000E007FCD00608080610080627
:101CD0001008061008061838060FF00607C00000A6
:101CE00000000000000000003F8001FFE00384309E
:101CF000020818041008041008041008071810033C
:101D00000FF00007C000000000000000000003C04A
:101D1000000700000600000600F80607F806180095
:101D200006E00007000006000000000000000001BF
:101D3000E1E003F7F0063410041808041808040C56
:101D400008040C0806161803F3F001C1E0000000B7
:101D500000000000F80003FC300306380402080409
:101D600002080402080404100308F001FFC0007F09
:101D70000000000000000000000000000000000063
:101D8000000000007038007038007038000000005B
:101D90000000000000000000000000000000000043
:101DA0000000000000000000301A00301C0000009D
:101DB0000000000000000000000000000000000023
:101DC0000000000800001400002200004100008014
:101DD00080010040020020040010080008000000FC
:101DE000000000002100002100002100002100006F
:101DF000210000210000210000210000210000211D
:101E000000000000000000000000080008040010AE
:101E100002002001004000808000410000220000FC
:101E2000140000080000000000000003C00004C00F
:101E300000040000080038080F38080838081000AF
:101E40000C300007E00003C00000000000000000AC
:101E50003F8000FFE0038070020F1006708804C00E
:101E600088048308047F8802C09003012000FE409C
:101E70000000080000180001F8003E0801C2000739
:101E8000020007E20000FE00001FC80001F8000089
:101E90003800000804000807FFF807FFF8040808E6
:101EA00004080804080804080806180803F41801C0
:101EB000E7F00001E0000000000000003F8001FFAB
:101EC000E003807002001804000804000804000801
:101ED0000400100600200780C0000000040008076E
:101EE000FFF807FFF80400080400080400080400D5
:101EF0001802001003807001FFE0007F80000000E6
:101F000004000807FFF807FFF8040808040808049D
:101F10000808040808043E08040008060018010028
:101F20006000000004000807FFF807FFF804080835
:101F3000040800040800040800043E00060000062F
:101F40000000018000000000000000003F8001FF51
:101F5000E003807006001804000804020804020868
:101F60000203F00783F000020000020004000807EB
:101F7000FFF807FFF8040808000800000800000840
:101F80000000080004080807FFF807FFF80400082D
:101F90000000000000000400080400080400080716
:101FA000FFF807FFF8040008040008040008000018
:101FB0000000000000000000000600000700000113
:101FC00004000104000104000307FFFE07FFFC04F6
:101FD000000004000004000004000807FFF807FFE9
:101FE000F8040C08001800003E0004C7800503C870
:101FF0000600F80400380400180000080400080770
:10200000FFF807FFF80400080000080000080000BF
:102010000800000800000800001800006000000030
:1020200004000807FFF807800807FC00007FC000D5
:1020300003F80007C000780007800807FFF807FFD3
:10204000F804000804000807FFF807000803C000B0
:1020500000E000003800001E000007000001C0047E
:1020600000F007FFF8040000000000007F8001FF7F
:10207000E003807006001804000804000806001839
:1020800003003001FFE0007F80000000040008072B
:10209000FFF807FFF8040408040400040400040423
:1020A00000040400060C0003F80001F0000000002A
:1020B000000000007F8001FFE003807006008804BC
:1020C00000880400C806003C03003E01FFE6007FD4
:1020D0008400000004000807FFF807FFF804080860
:1020E000040800040C00040F00040BC00610F003E9
:1020F000F03801E00800000800000001E0F803F0FB
:1021000030063010041808041808040C08040C08E1
:102110000206180207F00781E000000001800006B7
:10212000000004000004000004000807FFF807FF97
:10213000F80400080400000400000600000180000C
:1021400004000007FFE007FFF0040018000008008B
:10215000000800000800000800000804001007FF45
:10216000E004000004000006000007E00007FE0095
:10217000041FE00001F80000380001E0043E000701
:10218000C00006000004000004000007E00007FF94
:10219000C0041FF80007C007F80007FF80043FF8DD
:1021A0000007C004F800070000040000000000045D
:1021B000000806001807C07805F1C8003E00001F9F
:1021C000800463E80780F806001804000800000097
:1021D00004000006000007800007E008047C0800F7
:1021E0001FF80007F800180804E0080700000600C0
:1021F000000400000000000100080600380400F898
:102200000403E8040F08047C0805F00807C0080769
:102210000018040060000000000000000000000042
:10222000000000000000003FFFFE2000022000022E
:102230002000022000022000020000000000000038
:10224000000008000007000000C000003800000681
:10225000000001C000003000000E0000010000007E
:1022600000000000000020000220000220000220E8
:1022700000022000023FFFFE0000000000000000FE
:102280000000000000000000000000000008000046
:102290001000003000002000003000001000000896
:1022A000000000000000000000000100000100002C
:1022B0000100000100000100000100000100000118
:1022C000000001000001000001000001000000000A
:1022D000000000000020000020000010000010009E
:1022E00000000000000000000000000000000000EE
:1022F0000000000000F00019F8001B180022080080
:102300002608002408002410003FF8001FF80000F1
:102310000800001800000004000007FFF80FFFF09D
:1023200000181800100800200800200800301800CD
:102330001FF0000FC00000000000000007C0001FD9
:10234000F0001830002008002008002008003C0899
:10235000001C1000006000000000000000000000F1
:1023600007C0001FF00038180020080020080020D7
:102370000804101007FFF80FFFF000001000000025
:102380000000000000000007C0001FF00012300035
:102390002218002208002208003208001E10000E39
:1023A000200000000000000020000020080020089D
:1023B00001FFF803FFF8062008042008042008079E
:1023C000200003000000000000000000000E000ECE
:1023D0006E001FF30031B10020B10020B100319137
:1023E000001F13002E1E00200E003000000000040D
:1023F000000807FFF80FFFF8001008002000002079
:1024000000002008003FF8001FF80000080000004E
:10241000000000000000002008002008002008063E
:102420003FF8063FF8000008000008000008000020
:102430000000000000000000000000000300000396
:10244000002001002001002003063FFE063FFC00A3
:10245000000000000000000000000004000807FF6A
:10246000F80FFFF8000188000300002FC00038F8C3
:1024700000203800200800000800000000000000D4
:10248000000004000804000804000807FFF80FFF1C
:10249000F80000080000080000080000000000002C
:1024A000002008003FF8003FF8001008002000005E
:1024B0003FF8003FF8001008002000003FF8003F00
:1024C000F8000008000000002008003FF8003FF876
:1024D000001008001000002000002008003FF80055
:1024E0001FF80000080000000000000007C0000FF7
:1024F000F0001830003008002008002008003008E4
:10250000001830000FF00007C000000000000000BD
:102510002001003FFF003FFF0010110020090020B4
:1025200008002008003038001FF0000FC000000035
:102530000000000007C0001FF0003818002008004D
:102540002008002009001011001FFF003FFF0000BD
:1025500001000000002008002008002008003FF8CB
:10256000003FF800080800100800200800200000C4
:102570003000003000000000000000000000000CEF
:1025800078001E1800330800230800210800218865
:102590000021980030F000386000000000000000CA
:1025A000200000200000200000FFF003FFF80020C2
:1025B0000800200800200800003000000000000093
:1025C000000000002000003FF0007FF8000018002D
:1025D0000008000008002010003FF8007FF0000015
:1025E00010000000000000002000003000003C004F
:1025F000003F800023F0000078000070002380007E
:102600003C00003000002000002000003C00003FA3
:10261000E00023F80000E0002700003E00003FE05B
:102620000021F80001E0003E000020000000000052
:102630002008002008003838003E6800278000038A
:10264000C8002CF8003838002018002008000000CE
:10265000000000002000003003003C01003F830028
:1026600023EC000070002380003C000020000020CC
:1026700000000000000000000000003808002038C2
:102680000020F80023E8002F88003E0800380800EA
:102690002018000070000000000000000000000092
:1026A000000000000000000008000014001FF7FCFC
:1026B00030000620000200000000000000000000C2
:1026C0000000000000000000000000000000FFFF0C
:1026D000FF000000000000000000000000000000FB
:1026E0000000000000002000023000061FF7FC0080
:1026F00014000008000000000000000000000000BE
:102700000000000000000018000060000040000011
:102710004000002000001000000800000400000439
:1027200000000C00001000004827000800000020F6
:10273000581C00006C010008302A0008581C0020BA
:10274000A80B0000C8010008211BF010012AFF059A
:1027500052F01B0F04012AFF0502FF0F01474BC077
:1027600080014BFC84080336C0C03CFF7F40014A17
:10277000FF07043E40FF7F034A7F700373FCF86C41
:10278000FFFE02018BFFFF0B0268036C1F1F040199
:102790007BFFFF0B02741F038C7F3F07FFF8F8F0ED
:1027A000F0702001E60214801AFF0109122C0913AF
:1027B0002D01FF01C0EDFFFFFE06011AFF01F91513
:1027C000391603FF070201D10C12FFFFFF14091095
:1027D0001509151601FF01C1EDFFFFFF18011914BE
:1027E000091015391601FF01D204120201011AFF66
:1027F00001011209122A01FF01D71AFF0101FF018D
:10280000FD05FF1F1F0F0F01ED84A24A04100901EF
:1028100002030406070809100A03050911FF1189BC
:1028200005C312E012F072F8073D4428FF11AA44D4
:10283000700B8301384482929274018328087C448F
:10284000FF017D7D7D0449055C7D01FF8D99027945
:10285000A1890B013669419949FA0101011D380826
:102860003F3F0303F31311011E01F1116181312D6B
:10287000816111F1393B4141072C01C1211EAB217E
:10288000C114390139360738D33303033F3F23E0FE
:10289000E06A7FA81A7FBF4C0618060A213640401E
:1028A0007F40401C1F204001AB201F14113A600ED6
:1028B0006C300C034601361C070706017809040436
:1028C000048444444484071C0484C405790E09111B
:1028D0000A79112940034107072610181412112EF6
:1028E0000F1010100F0F331F1026081012120D2298
:1028F000186B0D120A5929590701605A8001013DD0
:1029000020087F030C300C037F2538545458257C55
:1029100004047805223C40407C17FFAAAAAA280894
:102920000A2CFF681E2649494932101D020408106E
:102930000F100A03050911FF118905C312E012F0F7
:1029400072F8073D4428FF11AA44700B83013844F4
:102950008292927401831E7C44FF017D0199055986
:10296000BB9A0102818A010B013669419949FA013A
:102970000101204BF808011135F81860803580609E
:1029800018F82B202006312BE0101EAB10E014614C
:102990003937043E8868186A7FA71A7FBE4C06182C
:1029A000060A114640407F40401C1F204001AB20DA
:1029B0001F141162603A602F01441E40202020C085
:1029C000ED190729EA2A4005115A600E891879295C
:1029D00059070149260C0A0A090C360F0808080F86
:1029E0002C080F08151D0809090E0719181C0909DC
:1029F0000918190A5929590701605A8001013D2017
:102A0000087F030C300C037F2538545458257C0470
:102A1000047805223C40407C17FFAAAAAA28080A8D
:102A20002CFF681E26494949321016020408107FFF
:0400000508000131BD
:00000001FF
